:100000000C9462000C948A000C948A000C948A0070
:100010000C948A000C948A000C948A000C948A0038
:100020000C948A000C948A000C948A000C945E0351
:100030000C948A000C948A000C948A000C948A0018
:100040000C9414030C948A000C94E2020C94BC02ED
:100050000C948A000C948A000C948A000C948A00F8
:100060000C948A000C948A000000000024002700F1
:100070002A0000000000250028002B0000000000DE
:1000800023002600290004040404040404040202DA
:100090000202020203030303030301020408102007
:1000A0004080010204081020010204081020000012
:1000B0000008000201000003040700000000000027
:1000C0000000350411241FBECFEFD8E0DEBFCDBF46
:1000D00011E0A0E0B1E0EEE1FBE002C005900D927E
:1000E000A235B107D9F722E0A2E5B1E001C01D9227
:1000F000A732B207E1F710E0C2E6D0E004C02197D2
:10010000FE010E948705C136D107C9F70E946D0420
:100110000C948D050C940000AF92BF92CF92DF92A9
:10012000EF92FF920F931F93CF93DF936C017B01AC
:100130008B01040F151FEB015E01AE18BF08C0173D
:10014000D10759F06991D601ED91FC910190F081B0
:10015000E02DC6010995892B79F7C501DF91CF9173
:100160001F910F91FF90EF90DF90CF90BF90AF90D5
:100170000895FC01538D448D252F30E0842F90E0AD
:10018000821B930B541710F0CF9608950197089592
:10019000FC01918D828D981761F0A28DAE0FBF2F5B
:1001A000B11D5D968C91928D9F5F9F73928F90E0B1
:1001B00008958FEF9FEF0895FC01918D828D981720
:1001C00031F0828DE80FF11D858D90E008958FEF5D
:1001D0009FEF0895FC01918D228D892F90E0805C26
:1001E0009F4F821B91098F739927089581E891E0B1
:1001F0000E94EA0021E0892B09F420E0822F089573
:1002000080E090E0892B29F00E94F60081110C9487
:1002100000000895FC01A48DA80FB92FB11DA35AA9
:10022000BF4F2C91848D90E001968F739927848F16
:10023000A689B7892C93A089B1898C918370806439
:100240008C93938D848D981306C00288F389E02DDA
:1002500080818F7D80830895EF92FF920F931F938B
:10026000CF93DF93EC0181E0888F9B8D8C8D981369
:100270001AC0E889F989808185FF15C09FB7F89475
:10028000EE89FF896083E889F989808183708064C1
:1002900080839FBF81E090E0DF91CF911F910F910C
:1002A000FF90EF900895F62E0B8D10E00F5F1F4F1B
:1002B0000F731127E02E8C8D8E110CC00FB607FC2A
:1002C000FACFE889F989808185FFF5CFCE010E94B8
:1002D0000A01F1CFEB8DEC0FFD2FF11DE35AFF4F1B
:1002E000F0829FB7F8940B8FEA89FB898081806246
:1002F000CFCFCF93DF93EC01888D8823B9F0AA8903
:10030000BB89E889F9898C9185FD03C0808186FDD0
:100310000DC00FB607FCF7CF8C9185FFF2CF80811F
:1003200085FFEDCFCE010E940A01E9CFDF91CF9189
:100330000895833081F028F4813099F08230A9F05B
:1003400008958730A9F08830C9F08430B1F48091E5
:1003500080008F7D03C0809180008F778093800024
:10036000089584B58F7784BD089584B58F7DFBCFC4
:100370008091B0008F778093B00008958091B00095
:100380008F7DF9CFCF93DF93282F30E0F901E2552D
:10039000FF4F8491F901E656FF4FD491F901EA57D6
:1003A000FF4FC491CC23A1F081110E949901EC2F41
:1003B000F0E0EE0FFF1FE458FF4FA591B491EC91D0
:1003C000ED2381E090E009F480E0DF91CF91089582
:1003D00080E090E0FACF1F93CF93DF93282F30E097
:1003E000F901E255FF4F8491F901E656FF4FD49190
:1003F000F901EA57FF4FC491CC23A9F0162F8111C0
:100400000E949901EC2FF0E0EE0FFF1FEE58FF4F16
:10041000A591B4918FB7F894EC91111108C0D095C3
:10042000DE23DC938FBFDF91CF911F910895DE2BE8
:10043000F8CFCF93DF9390E0FC01E656FF4F249175
:100440008A579F4FFC0184918823D1F090E0880F58
:10045000991FFC01E859FF4FA591B491FC01EE589A
:10046000FF4FC591D49161110EC09FB7F8948C9144
:10047000E22FE0958E238C932881E223E8839FBFAF
:10048000DF91CF9108958FB7F894EC91E22BEC9324
:100490008FBFF6CF3FB7F89480917D0190917E0198
:1004A000A0917F01B091800126B5A89B05C02F3F88
:1004B00019F00196A11DB11D3FBFBA2FA92F982F8A
:1004C0008827BC01CD01620F711D811D911D42E085
:1004D000660F771F881F991F4A95D1F7089561E02D
:1004E00083E00E94EB0160E084E00E94EB0160E0A9
:1004F00086E00E94EB0161E087E00C94EB0160E094
:1005000083E00E94EB0160E084E00E94EB0160E088
:1005100086E00E94EB0160E087E00C94EB0161E073
:1005200083E00E94EB0160E084E00E94EB0161E067
:1005300086E00E94EB0160E087E00C94EB01CF9332
:10054000DF93FC0101900020E9F73197AF01481BD0
:10055000590BBC0181E891E00E948C00EC0142E063
:1005600050E062E171E081E891E00E948C008C0F24
:100570009D1FDF91CF9108951F920F920FB60F929A
:1005800011242F933F934F935F936F937F938F9398
:100590009F93AF93BF93EF93FF9381E891E00E9405
:1005A0000A01FF91EF91BF91AF919F918F917F9140
:1005B0006F915F914F913F912F910F900FBE0F90D0
:1005C0001F9018951F920F920FB60F9211242F9320
:1005D0008F939F93EF93FF93E0919101F09192019C
:1005E0008081E0919701F091980182FD1BC090817C
:1005F00080919A018F5F8F7320919B01821741F048
:10060000E0919A01F0E0EF57FE4F958F80939A01A9
:10061000FF91EF919F918F912F910F900FBE0F90AF
:100620001F9018958081F4CF1F920F920FB60F92F2
:1006300011242F933F938F939F93AF93BF938091F8
:10064000790190917A01A0917B01B0917C01309168
:10065000780123E0230F2D3758F50196A11DB11D18
:10066000209378018093790190937A01A0937B0184
:10067000B0937C0180917D0190917E01A0917F01DA
:10068000B09180010196A11DB11D80937D019093D1
:100690007E01A0937F01B0938001BF91AF919F91A4
:1006A0008F913F912F910F900FBE0F901F90189533
:1006B00026E8230F0296A11DB11DD2CF1F920F92E3
:1006C0000FB60F9211242F933F934F935F936F9325
:1006D0007F938F939F93AF93BF93CF93DF93EF93CA
:1006E000FF9380915201C0917701D0E087FF24C031
:1006F0001092850010928400809152018F5F809348
:10070000520180915201082E000C990B8C179D0705
:1007100024F4809152018C30C4F180918400909136
:100720008500049680349C4908F47AC08091840046
:1007300090918500049676C080915201082E000C9D
:10074000990B8C179D07C4F6E09152018E2FEE0F86
:10075000990BFC01EE0FFF1FE80FF91FED5AFE4F3A
:10076000808186FFC9CFE09152018E2FEE0F990B49
:10077000FC01EE0FFF1FE80FF91FED5AFE4F8081BD
:1007800060E08F730E94EB01B7CF2091840030911D
:100790008500E09152018E2FEE0F990BFC01EE0FB8
:1007A000FF1FE80FF91FED5AFE4F81819281820FE2
:1007B000931F9093890080938800E09152018E2FBF
:1007C000EE0F990BFC01EE0FFF1FE80FF91FED5A1A
:1007D000FE4F808186FF11C0E09152018E2FEE0FF7
:1007E000990BFC01EE0FFF1FE80FF91FED5AFE4FAA
:1007F000808161E08F730E94EB01FF91EF91DF91A7
:10080000CF91BF91AF919F918F917F916F915F91A8
:100810004F913F912F910F900FBE0F901F90189501
:1008200080E49CE990938900809388008FEF809307
:100830005201E3CFFC01909177019C3098F481E064
:10084000890F809377019083892F90E0FC01EE0F50
:10085000FF1FE80FF91FED5AFE4F88EB9BE09283D4
:10086000818308958FEF80830895E1E8F1E013829A
:10087000128288EE93E0A0E0B0E084839583A683A3
:10088000B78384E091E09183808385EC90E0958745
:10089000848784EC90E09787868780EC90E0918B4A
:1008A000808B81EC90E0938B828B82EC90E0958B37
:1008B000848B86EC90E0978B868B118E128E138E34
:1008C000148E84E292E00E941A0481E292E00E9477
:1008D0001A048EE192E00C941A04789484B5826034
:1008E00084BD84B5816084BD85B5826085BD85B5D4
:1008F000816085BD80916E00816080936E00109252
:1009000081008091810082608093810080918100CC
:10091000816080938100809180008160809380005D
:100920008091B10084608093B1008091B0008160BB
:100930008093B00080917A00846080937A008091E7
:100940007A00826080937A0080917A00816080933F
:100950007A0080917A00806880937A001092C100BA
:1009600061E084E00E94190261E083E00E941902C4
:1009700061E086E00E94190261E087E00E941902AE
:1009800061E08AE00E94190261E08BE00E94190296
:1009900061E088E00E941902E0919101F0919201DA
:1009A00082E08083E0918D01F0918E011082E091D0
:1009B0008F01F09190018FEC808310929901E0916A
:1009C0009501F091960186E08083E0919301F0918A
:1009D0009401808180618083E0919301F091940182
:1009E000808188608083E0919301F09194018081FF
:1009F00080688083E0919301F091940180818F7DE4
:100A0000808360E082E00E94190260E08DE00E9435
:100A1000190260E08CE00E941902C0E0D0E08CE096
:100A20000E94C2017C018DE00E94C201E114F10428
:100A300009F052C0019709F05BC00E947F020E943A
:100A40008F0285E191E00E949F0282E00E94C20134
:100A50000197B9F561E088E00E94EB0160E08AE06F
:100A60000E94EB0160E08BE00E94EB010E947F029C
:100A700081E491E00E949F020E944A024B015C01C6
:100A800084EFC82EDD24D394E12CF12C0E944A027D
:100A9000681979098A099B09683E734081059105A7
:100AA000A8F381E0C81AD108E108F10828EE820E07
:100AB00023E0921EA11CB11CC114D104E104F10475
:100AC00029F7209709F4ABCF0E94F600882309F498
:100AD000A6CF0E940000A3CF892B51F4EA94EF28FF
:100AE00039F40E947F020E946F0283E291E0ABCF53
:100AF0000E948F020E946F0261E08AE00E94EB0177
:100B000060E08BE00E94EB0181E391E09CCFEE0F6F
:0E0B1000FF1F0590F491E02D0994F894FFCF9B
:100B1E00000000002C018C00B9007901EA00C80029
:100B2E00DC000D0A004D6F76696E6720666F776187
:100B3E007264004D6F7665206261636B77617264DB
:100B4E00004D6F76696E672072616E646F6D6C79A1
:100B5E00004F626A656374204465746563746564EE
:020B6E00000085
:00000001FF
